T2025 12345678912ABC         DEMO TRANSMITTER INC                                                            DEMO TRANSMITTER INC                                                            100 MAIN ST                             AUSTIN                                  TX787010000               00000050OPS CONTACT                             512555121212345ops@example.com                                                                                                                              00000001          I                                                                                                                                                                                                                                        
A2025      980000001     A 1                        LONE STAR SUPPLY LLC                    ACCOUNTS PAYABLE                         4101 COMMERCE ST                        DALLAS                                  TX752010000214555000000000                                                                                                                                                                                                                                                                    00000002                                                                                                                                                                                                                                                   
B2025     1010000001                                  000000012500                                                                                                                                                                                                                             EMMA RODRIGUEZ                                                                  1458 MAPLEWOOD DR                                                               HOUSTON                                 TX771010000 00000003                                                                                                                                                                                                                                                   
B2025     1010000002                                  000000015000                                                                                                                                                                                                                             LIAM BENNETT                                                                    7821 RIVER OAKS BLVD                                                            HOUSTON                                 TX771020000 00000004                                                                                                                                                                                                                                                   
B2025     1010000003                                  000000017500                                                                                                                                                                                                                             SOFIA MARTINEZ                                                                  3098 HIGHLAND AVE                                                               HOUSTON                                 TX771030000 00000005                                                                                                                                                                                                                                                   
B2025     1010000004                                  000000020000                                                                                                                                                                                                                             NOAH THOMPSON                                                                   5560 PECAN GROVE LN                                                             HOUSTON                                 TX771040000 00000006                                                                                                                                                                                                                                                   
B2025     1010000005                                  000000022500                                                                                                                                                                                                                             AVA PATEL                                                                       917 LAKEVIEW TER                                                                HOUSTON                                 TX771050000 00000007                                                                                                                                                                                                                                                   
B2025     1010000006                                  000000025000                                                                                                                                                                                                                             ETHAN WATSON                                                                    4207 CYPRESS CREEK RD                                                           HOUSTON                                 TX771060000 00000008                                                                                                                                                                                                                                                   
B2025     1010000007                                  000000027500                                                                                                                                                                                                                             MIA GONZALEZ                                                                    1884 SUNSET PARKWAY                                                             HOUSTON                                 TX771070000 00000009                                                                                                                                                                                                                                                   
B2025     1010000008                                  000000030000                                                                                                                                                                                                                             JACOB REED                                                                      6302 WILLOW BEND CT                                                             HOUSTON                                 TX771080000 00000010                                                                                                                                                                                                                                                   
B2025     1010000009                                  000000032500                                                                                                                                                                                                                             ISABELA FLORES                                                                  2745 OAK MEADOW ST                                                              HOUSTON                                 TX771090000 00000011                                                                                                                                                                                                                                                   
B2025     1010000010                                  000000035000                                                                                                                                                                                                                             OWEN CARTER                                                                     8019 NORTHRIDGE WAY                                                             HOUSTON                                 TX771100000 00000012                                                                                                                                                                                                                                                   
C00000010      000000000000237500                                                                                                                                                                                                                                                                                                                                                                                                                                                                                  00000013                                                                                                                                                                                                                                                   
A2025      980000002     A 1                        BLUEBONNET SERVICES LLC                 VENDOR PAYMENTS                          2550 LEGACY DR                          PLANO                                   TX750240000214555000000000                                                                                                                                                                                                                                                                    00000014                                                                                                                                                                                                                                                   
B2025     1020000001                                  000000022500                                                                                                                                                                                                                             EMMA RODRIGUEZ                                                                  1458 MAPLEWOOD DR                                                               HOUSTON                                 TX772010000 00000015                                                                                                                                                                                                                                                   
B2025     1020000002                                  000000025000                                                                                                                                                                                                                             LIAM BENNETT                                                                    7821 RIVER OAKS BLVD                                                            HOUSTON                                 TX772020000 00000016                                                                                                                                                                                                                                                   
B2025     1020000003                                  000000027500                                                                                                                                                                                                                             SOFIA MARTINEZ                                                                  3098 HIGHLAND AVE                                                               HOUSTON                                 TX772030000 00000017                                                                                                                                                                                                                                                   
B2025     1020000004                                  000000030000                                                                                                                                                                                                                             NOAH THOMPSON                                                                   5560 PECAN GROVE LN                                                             HOUSTON                                 TX772040000 00000018                                                                                                                                                                                                                                                   
B2025     1020000005                                  000000032500                                                                                                                                                                                                                             AVA PATEL                                                                       917 LAKEVIEW TER                                                                HOUSTON                                 TX772050000 00000019                                                                                                                                                                                                                                                   
B2025     1020000006                                  000000035000                                                                                                                                                                                                                             ETHAN WATSON                                                                    4207 CYPRESS CREEK RD                                                           HOUSTON                                 TX772060000 00000020                                                                                                                                                                                                                                                   
B2025     1020000007                                  000000037500                                                                                                                                                                                                                             MIA GONZALEZ                                                                    1884 SUNSET PARKWAY                                                             HOUSTON                                 TX772070000 00000021                                                                                                                                                                                                                                                   
B2025     1020000008                                  000000040000                                                                                                                                                                                                                             JACOB REED                                                                      6302 WILLOW BEND CT                                                             HOUSTON                                 TX772080000 00000022                                                                                                                                                                                                                                                   
B2025     1020000009                                  000000042500                                                                                                                                                                                                                             ISABELA FLORES                                                                  2745 OAK MEADOW ST                                                              HOUSTON                                 TX772090000 00000023                                                                                                                                                                                                                                                   
B2025     1020000010                                  000000045000                                                                                                                                                                                                                             OWEN CARTER                                                                     8019 NORTHRIDGE WAY                                                             HOUSTON                                 TX772100000 00000024                                                                                                                                                                                                                                                   
C00000010      000000000000337500                                                                                                                                                                                                                                                                                                                                                                                                                                                                                  00000025                                                                                                                                                                                                                                                   
A2025      980000003     A 1                        RIVERSTONE LOGISTICS INC                FINANCE OPERATIONS                       9800 WESTPARK DR                        HOUSTON                                 TX770420000214555000000000                                                                                                                                                                                                                                                                    00000026                                                                                                                                                                                                                                                   
B2025     1030000001                                  000000032500                                                                                                                                                                                                                             EMMA RODRIGUEZ                                                                  1458 MAPLEWOOD DR                                                               HOUSTON                                 TX773010000 00000027                                                                                                                                                                                                                                                   
B2025     1030000002                                  000000035000                                                                                                                                                                                                                             LIAM BENNETT                                                                    7821 RIVER OAKS BLVD                                                            HOUSTON                                 TX773020000 00000028                                                                                                                                                                                                                                                   
B2025     1030000003                                  000000037500                                                                                                                                                                                                                             SOFIA MARTINEZ                                                                  3098 HIGHLAND AVE                                                               HOUSTON                                 TX773030000 00000029                                                                                                                                                                                                                                                   
B2025     1030000004                                  000000040000                                                                                                                                                                                                                             NOAH THOMPSON                                                                   5560 PECAN GROVE LN                                                             HOUSTON                                 TX773040000 00000030                                                                                                                                                                                                                                                   
B2025     1030000005                                  000000042500                                                                                                                                                                                                                             AVA PATEL                                                                       917 LAKEVIEW TER                                                                HOUSTON                                 TX773050000 00000031                                                                                                                                                                                                                                                   
B2025     1030000006                                  000000045000                                                                                                                                                                                                                             ETHAN WATSON                                                                    4207 CYPRESS CREEK RD                                                           HOUSTON                                 TX773060000 00000032                                                                                                                                                                                                                                                   
B2025     1030000007                                  000000047500                                                                                                                                                                                                                             MIA GONZALEZ                                                                    1884 SUNSET PARKWAY                                                             HOUSTON                                 TX773070000 00000033                                                                                                                                                                                                                                                   
B2025     1030000008                                  000000050000                                                                                                                                                                                                                             JACOB REED                                                                      6302 WILLOW BEND CT                                                             HOUSTON                                 TX773080000 00000034                                                                                                                                                                                                                                                   
B2025     1030000009                                  000000052500                                                                                                                                                                                                                             ISABELA FLORES                                                                  2745 OAK MEADOW ST                                                              HOUSTON                                 TX773090000 00000035                                                                                                                                                                                                                                                   
B2025     1030000010                                  000000055000                                                                                                                                                                                                                             OWEN CARTER                                                                     8019 NORTHRIDGE WAY                                                             HOUSTON                                 TX773100000 00000036                                                                                                                                                                                                                                                   
C00000010      000000000000437500                                                                                                                                                                                                                                                                                                                                                                                                                                                                                  00000037                                                                                                                                                                                                                                                   
A2025      980000004     A 1                        PRAIRIE OAK HOLDINGS LLC                TREASURY SERVICES                        7700 GAYLORD PKWY                       FRISCO                                  TX750340000214555000000000                                                                                                                                                                                                                                                                    00000038                                                                                                                                                                                                                                                   
B2025     1040000001                                  000000042500                                                                                                                                                                                                                             EMMA RODRIGUEZ                                                                  1458 MAPLEWOOD DR                                                               HOUSTON                                 TX774010000 00000039                                                                                                                                                                                                                                                   
B2025     1040000002                                  000000045000                                                                                                                                                                                                                             LIAM BENNETT                                                                    7821 RIVER OAKS BLVD                                                            HOUSTON                                 TX774020000 00000040                                                                                                                                                                                                                                                   
B2025     1040000003                                  000000047500                                                                                                                                                                                                                             SOFIA MARTINEZ                                                                  3098 HIGHLAND AVE                                                               HOUSTON                                 TX774030000 00000041                                                                                                                                                                                                                                                   
B2025     1040000004                                  000000050000                                                                                                                                                                                                                             NOAH THOMPSON                                                                   5560 PECAN GROVE LN                                                             HOUSTON                                 TX774040000 00000042                                                                                                                                                                                                                                                   
B2025     1040000005                                  000000052500                                                                                                                                                                                                                             AVA PATEL                                                                       917 LAKEVIEW TER                                                                HOUSTON                                 TX774050000 00000043                                                                                                                                                                                                                                                   
B2025     1040000006                                  000000055000                                                                                                                                                                                                                             ETHAN WATSON                                                                    4207 CYPRESS CREEK RD                                                           HOUSTON                                 TX774060000 00000044                                                                                                                                                                                                                                                   
B2025     1040000007                                  000000057500                                                                                                                                                                                                                             MIA GONZALEZ                                                                    1884 SUNSET PARKWAY                                                             HOUSTON                                 TX774070000 00000045                                                                                                                                                                                                                                                   
B2025     1040000008                                  000000060000                                                                                                                                                                                                                             JACOB REED                                                                      6302 WILLOW BEND CT                                                             HOUSTON                                 TX774080000 00000046                                                                                                                                                                                                                                                   
B2025     1040000009                                  000000062500                                                                                                                                                                                                                             ISABELA FLORES                                                                  2745 OAK MEADOW ST                                                              HOUSTON                                 TX774090000 00000047                                                                                                                                                                                                                                                   
B2025     1040000010                                  000000065000                                                                                                                                                                                                                             OWEN CARTER                                                                     8019 NORTHRIDGE WAY                                                             HOUSTON                                 TX774100000 00000048                                                                                                                                                                                                                                                   
C00000010      000000000000537500                                                                                                                                                                                                                                                                                                                                                                                                                                                                                  00000049                                                                                                                                                                                                                                                   
A2025      980000005     A 1                        SUNRIDGE ENERGY PARTNERS                DISBURSEMENTS UNIT                       1221 MCKINNEY ST                        HOUSTON                                 TX770020000214555000000000                                                                                                                                                                                                                                                                    00000050                                                                                                                                                                                                                                                   
B2025     1050000001                                  000000052500                                                                                                                                                                                                                             EMMA RODRIGUEZ                                                                  1458 MAPLEWOOD DR                                                               HOUSTON                                 TX775010000 00000051                                                                                                                                                                                                                                                   
B2025     1050000002                                  000000055000                                                                                                                                                                                                                             LIAM BENNETT                                                                    7821 RIVER OAKS BLVD                                                            HOUSTON                                 TX775020000 00000052                                                                                                                                                                                                                                                   
B2025     1050000003                                  000000057500                                                                                                                                                                                                                             SOFIA MARTINEZ                                                                  3098 HIGHLAND AVE                                                               HOUSTON                                 TX775030000 00000053                                                                                                                                                                                                                                                   
B2025     1050000004                                  000000060000                                                                                                                                                                                                                             NOAH THOMPSON                                                                   5560 PECAN GROVE LN                                                             HOUSTON                                 TX775040000 00000054                                                                                                                                                                                                                                                   
B2025     1050000005                                  000000062500                                                                                                                                                                                                                             AVA PATEL                                                                       917 LAKEVIEW TER                                                                HOUSTON                                 TX775050000 00000055                                                                                                                                                                                                                                                   
B2025     1050000006                                  000000065000                                                                                                                                                                                                                             ETHAN WATSON                                                                    4207 CYPRESS CREEK RD                                                           HOUSTON                                 TX775060000 00000056                                                                                                                                                                                                                                                   
B2025     1050000007                                  000000067500                                                                                                                                                                                                                             MIA GONZALEZ                                                                    1884 SUNSET PARKWAY                                                             HOUSTON                                 TX775070000 00000057                                                                                                                                                                                                                                                   
B2025     1050000008                                  000000070000                                                                                                                                                                                                                             JACOB REED                                                                      6302 WILLOW BEND CT                                                             HOUSTON                                 TX775080000 00000058                                                                                                                                                                                                                                                   
B2025     1050000009                                  000000072500                                                                                                                                                                                                                             ISABELA FLORES                                                                  2745 OAK MEADOW ST                                                              HOUSTON                                 TX775090000 00000059                                                                                                                                                                                                                                                   
B2025     1050000010                                  000000075000                                                                                                                                                                                                                             OWEN CARTER                                                                     8019 NORTHRIDGE WAY                                                             HOUSTON                                 TX775100000 00000060                                                                                                                                                                                                                                                   
C00000010      000000000000637500                                                                                                                                                                                                                                                                                                                                                                                                                                                                                  00000061                                                                                                                                                                                                                                                   
F00000005000000000000000000000                   00000050                                                                                                                                                                                                                                                                                                                                                                                                                                                          00000062                                                                                                                                                                                                                                                   
